:020000040000fa
:080000000002040000000000f2
:020000040000fa
:04000800f002000002
:020000040000fa
:04000c00f0020000fe
:020000040000fa
:04001000f0020000fa
:020000040000fa
:04001400f0020000f6
:020000040000fa
:04001800f0020000f2
:020000040000fa
:04001c00f0020000ee
:020000040000fa
:04002000f0020000ea
:020000040000fa
:04002400f0020000e6
:020000040000fa
:04002800f0020000e2
:020000040000fa
:04002c00f0020000de
:020000040000fa
:04003000f0020000da
:020000040000fa
:04003400f0020000d6
:020000040000fa
:04003800f0020000d2
:020000040000fa
:04003c00f0020000ce
:020000040000fa
:04004000f0020000ca
:020000040000fa
:04004400f0020000c6
:020000040000fa
:04004800f0020000c2
:020000040000fa
:04004c00f0020000be
:020000040000fa
:04005000f0020000ba
:020000040000fa
:04005400f0020000b6
:020000040000fa
:04005800f0020000b2
:020000040000fa
:04005c00c8020000d6
:020000040000fa
:04006000f0020000aa
:020000040000fa
:04006400f0020000a6
:020000040000fa
:04006800f0020000a2
:020000040000fa
:04006c00f00200009e
:020000040000fa
:04007000f00200009a
:020000040000fa
:04007400f002000096
:020000040000fa
:04007800f002000092
:020000040000fa
:04007c00f00200008e
:020000040000fa
:04008000f00200008a
:020000040000fa
:04008400f002000086
:020000040000fa
:04008800f002000082
:020000040000fa
:04008c00f00200007e
:020000040000fa
:04009000f00200007a
:020000040000fa
:04009400f002000076
:020000040000fa
:04009800f002000072
:020000040000fa
:04009c00f00200006e
:020000040000fa
:0400a000f00200006a
:020000040000fa
:0400a400f002000066
:020000040000fa
:0400a800f002000062
:020000040000fa
:0400ac00f00200005e
:020000040000fa
:0400b000f00200005a
:020000040000fa
:0400b400f002000056
:020000040000fa
:0400b800f002000052
:020000040000fa
:0400bc00f00200004e
:020000040000fa
:0400c000f00200004a
:020000040000fa
:0400c400f002000046
:020000040000fa
:0400c800f002000042
:020000040000fa
:0400cc00f00200003e
:020000040000fa
:0400d000f00200003a
:020000040000fa
:0400d400f002000036
:020000040000fa
:0400d800f002000032
:020000040000fa
:0400dc00f00200002e
:020000040000fa
:0400e000f00200002a
:020000040000fa
:0400e400f002000026
:020000040000fa
:0400e800f002000022
:020000040000fa
:0400ec00f00200001e
:020000040000fa
:0400f000f00200001a
:020000040000fa
:0400f400f002000016
:020000040000fa
:0400f800f002000012
:020000040000fa
:0400fc00f00200000e
:020000040000fa
:04010000f002000009
:020000040000fa
:04010400f002000005
:020000040000fa
:04010800f002000001
:020000040000fa
:04010c00f0020000fd
:020000040000fa
:04011000f0020000f9
:020000040000fa
:04011400f0020000f5
:020000040000fa
:04011800f0020000f1
:020000040000fa
:04011c00f0020000ed
:020000040000fa
:04012000f0020000e9
:020000040000fa
:04012400f0020000e5
:020000040000fa
:04012800f0020000e1
:020000040000fa
:04012c00f0020000dd
:020000040000fa
:04013000f0020000d9
:020000040000fa
:04013400f0020000d5
:020000040000fa
:04013800f0020000d1
:020000040000fa
:04013c00f0020000cd
:020000040000fa
:04014000f0020000c9
:020000040000fa
:04014400f0020000c5
:020000040000fa
:04014800f0020000c1
:020000040000fa
:04020800f002000000
:020000040000fa
:04020c00f0020000fc
:020000040000fa
:04021000f0020000f8
:020000040000fa
:04021400f0020000f4
:020000040000fa
:04021800f0020000f0
:020000040000fa
:04021c00f0020000ec
:020000040000fa
:04022000f0020000e8
:020000040000fa
:04022400f0020000e4
:020000040000fa
:04022800f0020000e0
:020000040000fa
:04022c00f0020000dc
:020000040000fa
:04023000f0020000d8
:020000040000fa
:04023400f0020000d4
:020000040000fa
:04023800f0020000d0
:020000040000fa
:04023c00f0020000cc
:020000040000fa
:04024000f0020000c8
:020000040000fa
:04024400f0020000c4
:020000040000fa
:04024800f0020000c0
:020000040000fa
:04024c00f0020000bc
:020000040000fa
:04025000f0020000b8
:020000040000fa
:04025400f0020000b4
:020000040000fa
:04025800f0020000b0
:020000040000fa
:04025c00c8020000d4
:020000040000fa
:04026000f0020000a8
:020000040000fa
:04026400f0020000a4
:020000040000fa
:04026800f0020000a0
:020000040000fa
:04026c00f00200009c
:020000040000fa
:04027000f002000098
:020000040000fa
:04027400f002000094
:020000040000fa
:04027800f002000090
:020000040000fa
:04027c00f00200008c
:020000040000fa
:04028000f002000088
:020000040000fa
:04028400f002000084
:020000040000fa
:04028800f002000080
:020000040000fa
:04028c00f00200007c
:020000040000fa
:04029000f002000078
:020000040000fa
:04029400f002000074
:020000040000fa
:04029800f002000070
:020000040000fa
:04029c00f00200006c
:020000040000fa
:0402a000f002000068
:020000040000fa
:0402a400f002000064
:020000040000fa
:0402a800f002000060
:020000040000fa
:0402ac00f00200005c
:020000040000fa
:0402b000f002000058
:020000040000fa
:0402b400f002000054
:020000040000fa
:0402b800f002000050
:020000040000fa
:0402bc00f00200004c
:020000040000fa
:0402c000f002000048
:020000040000fa
:0402c400f002000044
:020000040000fa
:0402c800f002000040
:020000040000fa
:0402cc00f00200003c
:020000040000fa
:0402d000f002000038
:020000040000fa
:0402d400f002000034
:020000040000fa
:0402d800f002000030
:020000040000fa
:0402dc00f00200002c
:020000040000fa
:0402e000f002000028
:020000040000fa
:0402e400f002000024
:020000040000fa
:0402e800f002000020
:020000040000fa
:0402ec00f00200001c
:020000040000fa
:0402f000f002000018
:020000040000fa
:0402f400f002000014
:020000040000fa
:0402f800f002000010
:020000040000fa
:0402fc00f00200000c
:020000040000fa
:04030000f002000007
:020000040000fa
:04030400f002000003
:020000040000fa
:04030800f0020000ff
:020000040000fa
:04030c00f0020000fb
:020000040000fa
:04031000f0020000f7
:020000040000fa
:04031400f0020000f3
:020000040000fa
:04031800f0020000ef
:020000040000fa
:04031c00f0020000eb
:020000040000fa
:04032000f0020000e7
:020000040000fa
:04032400f0020000e3
:020000040000fa
:04032800f0020000df
:020000040000fa
:04032c00f0020000db
:020000040000fa
:04033000f0020000d7
:020000040000fa
:04033400f0020000d3
:020000040000fa
:04033800f0020000cf
:020000040000fa
:04033c00f0020000cb
:020000040000fa
:04034000f0020000c7
:020000040000fa
:04034400f0020000c3
:020000040000fa
:04034800f0020000bf
:020000040000fa
:100400006f8120000e7f22000e0188000000000096
:10041000000020000000e000020032000001200087
:1004200020028800140007006f0007000000e000b1
:1004300003003a00c03e2000010020000200370007
:100440000000200001002000810f70000100320038
:1004500014000700000020000000e000020032004d
:100460000000020000000000e203020000000000a3
:100470000040da000000fe004440a9000000200017
:100480000000e0000300320000002000a00188000e
:100490004440a800000006008a1f78008b1f7800e7
:1004a0000000060091018800800478000000eb0045
:1004b0001a003700e284440032a0b4009905ba0063
:1004c000e284440032a0b4009906ba00e2844400f9
:1004d00032a0b4000006eb00476fde00fd07b2005b
:1004e000636ce10003003a00ebff07000000eb0043
:1004f0000a003700606ce10004003a00005deb0088
:100500008b05e900fdff3e00040037006168e10053
:10051000010032000086eb000b00070019c7ba008b
:100520001905ba000e04e00003003a000a00e000da
:10053000e0ff3a0000000600fe07b2009e018800be
:100540008a047800f5ff3700395dba008b05e900b1
:100550000c003200295dba008b05e900080032006a
:100560000c00e00003003a00e284440032a0b40032
:10057000f5ff370019ddba008b05e900faff3a00f4
:100580008904e800e184440032a0b40000000600c1
:100590003600f800809fbe00829fbe00849fbe0090
:1005a000869fbe003400f80000002000a0018800f3
:1005b0000000fa0085a0a900001880001b000700b9
:1005c0000080fa003400f9004f03be004f02be0065
:1005d0004f01be004f00be003600f900004006008b
:0c05e0000040da000000fe0000000500f2
:020000040000fa
:1005ec000200fa000000eb00000f78000700370053
:1005fc001e00780080004000208020000080400019
:10060c008000eb00010878001e0fe8001e00780047
:10061c00e90f5000f6ff34000080fa0000000600dd
:10062c000200fa00000f780000408000000140003a
:10063c0021802000810041009e0878000000e80025
:10064c000040880000408000e90f50000100340099
:10065c000028ef000080fa00000006000600fa00f7
:10066c000000eb00000f78000000eb002007980062
:10067c000000eb00100798000000eb00100798003a
:10068c00090037001e0090008000400020802000f0
:10069c0000804000100078001e0f40001e009000eb
:1006ac000000e800100798001e009000e90f5000b1
:1006bc00f4ff34001e017800706626000090b9002b
:1006cc00c288de004f90de000080500020079800aa
:1006dc002e0090000080fa00000006000000fa00d6
:1006ec00213a8000f08f2f0000806000203a8800b3
:1006fc00f0ff290060198800e0ff2f000016880029
:10070c00c422ef000080fa00000006000000fa008e
:10071c00c002a8002c03a90011198000f0ff2100d1
:10072c00008060001019880020c0b30024e3b700db
:10073c0001198000f0f12f00008060000060a00023
:10074c000019880021198000f00f2e000080600035
:10075c000090a0002019880001198000f0cf2f0014
:10076c0000806000001988002043a8001119800047
:10077c0030fc2f00008060001019880021e3a800d5
:10078c0085a0a90095a0a8000a21ef001221ef0076
:10079c0091088000f0fc2f00008060000050a00049
:1007ac009008880070a923007008880013e1a80045
:1007bc000080fa00000006000000fa00c7ff0700e6
:0c07cc00d2ff070086ff0700ffff370088
:020000040000fa
:1007d80002080000140000000000000000080000eb
:0c07e80002000000000000000000000003
:020000040000fa
:020000040001f9
:0457f8000ff90000a5
:020000040000fa
:020000040001f9
:0457fc007f3f0000eb
:00000001FF
